:020000040800F2
:1000000000500020F1000008F7000008FB00000885
:1000100013010008170100082F010008000000006C
:100020000000000000000000000000004701000880
:100030004B010008000000004F010008390C0008C7
:10004000ED000008ED000008ED000008ED000008DC
:10005000ED000008ED000008ED000008ED000008CC
:10006000ED000008ED000008ED000008ED000008BC
:10007000ED000008ED000008ED000008ED000008AC
:10008000ED000008ED000008ED000008ED0000089C
:10009000ED000008ED000008ED000008ED0000088C
:1000A000ED000008F51C0008ED000008ED00000858
:1000B000991E0008ED000008ED000008ED000008A2
:1000C000ED000008ED000008ED000008ED0000085C
:1000D000ED000008F10A0008ED000008ED0000083E
:1000E000ED000008ED000008ED00000800BEFEE78E
:1000F00008B500F035F800BEFEE71EF0040F0CBF97
:10010000EFF30880EFF309807146124A104700BEF2
:10011000FEE700BEFEE71EF0040F0CBFEFF3088001
:10012000EFF3098071460C4A104700BEFEE71EF04F
:10013000040F0CBFEFF30880EFF309807146074A04
:10014000104700BEFEE700BEFEE700BEFEE700BEB1
:10015000FEE770470F0100082B010008430100086B
:1001600007B506F067FB2C4B2C482D492D4A2E4C29
:1001700003600B602D4DAA4208D300682C4A9042C0
:1001800003D109682B4A914205D0FEE754F8045B7D
:1001900042F8045BEEE72849284A0B601360284BBD
:1001A0002848834204D30B680BB9146824B1FEE7D6
:1001B000002043F8040BF3E706F0FEFA684601A9B5
:1001C00006F062FB204E214DAD1BAD10A54214DCA4
:1001D00000261F4D1F4C641BA410B44212DCDDE945
:1001E000000100F07FF905461B4E1C4CA41BA41017
:1001F000002C0CDC284606F00BFF56F8043B984711
:100200000134E3E755F8043B98470136E5E7013C44
:1002100056F824309847EBE7BABADECA000000204F
:100220008800002000000020B4AB00088C000020F3
:1002300078563412325476988C000020B02E00206C
:100240008C000020B42E00208802000888020008DC
:100250008802000888020008880200088802000856
:10026000B4AB0008000000208C000020B4AB0008F4
:1002700000000000000000008C000020B42E0020D0
:08028000000000000000000076
:1002880010B514461A468BB2014604481CB100F05A
:1002980007FC012010BD00F0DEFBFAE7900000200B
:1002A8000346012B10B50846144607D0022B0AD086
:1002B80073B901F011F82060012010BD1146BDE8A6
:1002C800104001F00FB81146BDE8104001F048B8E1
:1002D8000020F2E738B504460D461846C2B90D4B62
:1002E800A4F1FE54042D04EB030103D11B59036050
:1002F800012038BD012D02D11B5D0370F8E7022DE6
:1003080002D11B5B0380F3E72A4608F037FAEFE7D0
:100318000020EEE7ECA10008014608B5014808F006
:100328000BFBFEE750A00008F8B5012003F034FCF1
:10033800044605287BD8DFE800F0031522264E7511
:10034800042003F029FC012809D030F002030CBF77
:1003580001210021022003F03DFC0120F8BD4FF4EB
:100368000001F7E7042003F017FCC4B20A2C02D1FD
:100378000D2000F039FC204600F036FCEDE700F0D7
:10038800ABFF0146E6E7042003F006FC064605201D
:1003980003F002FC2B490746304600F0A3FF002576
:1003A8000446284A79192A4420232748203500F092
:1003B80077FBB5F5007FF4D12146022003F00AFC53
:1003C800002CCAD123463A463146204808F0B4FAF0
:1003D8000620FFF7A1FF042003F0DEFB05460520F9
:1003E80003F0DAFB00240646164F31193A19202388
:1003F8001548203400F02FFBB4F5007FF4D13946BE
:10040800284600F0ADFF04460146022003F0E2FB57
:10041800002CA2D12346324629460D4808F08CFA12
:100428000520D6E70B4808F087FA0720D1E72020F7
:1004380003F0B2FB21460246074808F07DFA002087
:100448008CE700BF3C0100209000002062A000085B
:100458007FA000089CA00008B3A0000800BF704758
:10046800032802D1C8B200F0BFBB704793B20A4656
:100478000146014800F0EFBA9000002093B20A4606
:100488000146014800F00CBB9000002013B5074B53
:10049800ADF806101C680DF1060204EB40010223BA
:1004A800034800F0FDFA02B010BD00BF3C03002075
:1004B8009000002007B5074B0DF1060219680223CA
:1004C80001EB4001044800F0C6FABDF8060003B08D
:1004D8005DF804FB3C030020900000206A4B30B517
:1004E8009A698DB042F001029A619A69674902F0EF
:1004F80001020592059ADA6908A842F08052DA6189
:10050800DB6903F080530493049BCA68604B22F4B0
:10051800E0621204120C1343CB6006F0B7FA00F045
:1005280045F900F0BDF94FF4E13000F0EDFA62B69C
:1005380000F06CFB574808F0FFF9574B08995748EB
:10054800B1FBF3F108F0F8F900F07AFB02460B462C
:10055800534801F015FA00F073FB002402460B46DD
:100568004F4801F00DFA4F4D4F4B28466B604F4BEB
:100578002B6000F01DFA284606A9CDE9064400F0D4
:1005880033FA9DF818104A4808F0D6F99DF8191062
:10059800484808F0D1F99DF81A309DF81E200293BA
:1005A8009DF81B309DF81F1001939DF81C304248A0
:1005B80000939DF81D3008F0BFF99DF819103F4AC7
:1005C8003F4B40485D2914BF1146194608F0B4F95D
:1005D8003D4800F0F3FB18B93C4808F0ADF9FEE7D8
:1005E8004FF4FC013A4B20463A4A196001F036FDB7
:1005F80048B93949394808F09FF9394808F09CF951
:1006080000200DB030BD40F211114FF0FE50354AB8
:1006180001F024FD08B93449ECE701F0C9FD08B937
:100628003249E7E701F092FF08B93149E2E70720CC
:1006380002F03EFC08B92F49DCE70621224B2E4A7E
:100648002E48009403F064F908B92D49D2E72146F1
:100658002C4803F00DFA08B92B49CBE70134062CD6
:10066800F5D101F02BFC08B92849C3E702F04EF890
:1006780008B92749BEE74FF4FC0003F030FA4FF4FD
:10068800FC0003F04AFCFAE70010024000ED00E02D
:100698000003FA05D4A0000840420F00EBA00008B0
:1006A800FCA00008900000207508000889080008D0
:1006B80017A100083BA1000849A10008CFA0000825
:1006C800CAA000086AA100083C01002078A100081F
:1006D8003C030020890200088CA1000890A10008B2
:1006E800DAA10008DD020008A3A10008A7A10008FC
:1006F800AFA10008B4A10008A902000898000020D2
:10070800B8A10008F8000020C2A10008CDA1000887
:10071800D4A100081FB5234A136823F0070343F048
:1007280002031360136803F00703022BFAD11E4B70
:100738001A6842F480321A601A689103FCD55A6824
:1007480022F47C1242F464125A601A6842F08072F1
:100758001A601A689201FCD55A6822F0F0025A60B1
:100768005A6822F4E06242F480625A605A6822F4BD
:1007780060525A605A6822F0030242F002025A603C
:100788005A6802F00C02082AFAD1684606F07EF987
:10079800019806F051FA019806F05CFA05B05DF888
:1007A80004FB00BF002002400010024070B5002486
:1007B80092B02822002108A808F056F8284B079480
:1007C8009A69032642F480529A619A69254D02F487
:1007D80080520292029A9A6903A942F004029A612D
:1007E8009B694AF2A00203F004030193019B0923C9
:1007F8002846CDE90323CDE9056406F059F9042319
:1008080044F240012846CDE9031303A906F050F944
:10081800012341F2100003A9CDE903032846CDE9DD
:10082800056406F045F910232B614FF482734FF4E9
:100838000075CDE909340823CDE90D530A23CDE924
:100848000B44CDE90F440894074C08A9204611939E
:1008580006F036FB236843F04003236012B070BDF6
:100868000010024000080140003001401022034BF4
:1008780008B11A6170475A61704700BF000801400B
:10088800064B9A68910705D518739A68D20703D45E
:1008980000BFFAE700BFF3E7187B7047003001405C
:1008A80070B5002492B02822002108A807F0DCFFC8
:1008B800274B0794DA69032642F48042DA61DA6941
:1008C800244D02F480420292029A9A6903A942F0E6
:1008D80008029A619B69204A03F008030193019B6F
:1008E80009232846CDE90323CDE9056406F0E0F89D
:1008F80004231A492846CDE9031303A906F0D8F8BA
:100908000123174803A9CDE903032846CDE9056467
:1009180006F0CEF84FF480532B614FF482734FF4F6
:100928000075CDE909343823CDE90D530A23CDE903
:100938000B44CDE90F4408940A4C08A920461193AA
:1009480006F0BEFA236843F04003236012B070BD7E
:1009580000100240000C0140A000A0044000400428
:1009680010001004003800404FF48052024B08B1C8
:100978001A6170475A617047000C0140064B9A682B
:10098800910705D518739A68D20703D400BFFAE710
:1009980000BFF3E7187B704700380040034A13682C
:1009A80023F0380343F00803136070470038004011
:1009B80038B543680446012098470A25FF20236874
:1009C8009847013DFAD128466368984723689920DB
:1009D80098470120636898470A25FF2023689847AD
:1009E800013DFAD1012038BD70B5044643680020A6
:1009F8000D46984723689F2098472368002098470A
:100A08002368002098472368002098472368FF2020
:100A1800984728702368FF20984768702368FF204C
:100A28009847A8702368FF209847E8702368FF203C
:100A3800984728712368FF20984768712368FF202A
:100A48009847A8712368FF209847E87163680120D8
:100A5800BDE8704018472DE9F04104460F461E4690
:100A68004368002015469847236803209847236861
:100A7800C7F3074098472368C7F3072098472368B8
:100A8800F8B298472E44B54204D163680120BDE806
:100A9800F0411847FF202368984705F8010BF2E753
:100AA8002DE9F04104460F461E46436800201546CE
:100AB80098472368022098472368C7F30740984758
:100AC8002368C7F3072098472368F8B298472E444D
:100AD800B54204D163680120BDE8F0411847236896
:100AE80015F8010B9847F3E7064B1A68910607D5E6
:100AF800DA68920604D559680320C9B201F044BCEB
:100B0800704700BF003801401C2230B500248FB068
:100B1800054600210DEB020007F0A6FE2A4B0694BD
:100B28009A6902A942F480429A619A69274802F4B4
:100B380080420192019A9A6942F004029A619B6983
:100B4800234A03F004030093009B0923CDE9022301
:100B58000323CDE9043405F0ABFF04231D491B48EA
:100B6800CDE9021302A905F0A3FF20221A4B07A919
:100B7800DB681A4B83F825435A600C23CDE90754E8
:100B8800CDE90B34CDE909440D94154C204606F007
:100B980067F8236923F490432361636923F02A03E8
:100BA8006361E36843F40053E3600E4A02F60C0302
:100BB80053E8003F43F0200302F60C0242E80031FC
:100BC8000029F2D10FB030BD0010024000080140EA
:100BD800020002040400040400ED00E000E100E06B
:100BE8000038014000300140024B1A681206FBD55C
:100BF8005860704700380140034B1A681206FBD54D
:100C0800C2B25A60704700BF003801404FF0E0237D
:100C18000022102005491A6181F823006FF07F41F6
:100C28001A6159619A6107221A61704700ED00E064
:100C3800024A136801331360704700BF4003002065
:100C4800084A11684FF0E0239B6910688842F7D181
:100C5800C3F1FF13010A03F57F430006C01841F1F1
:100C680000017047400300202C4A2D4B2DE9F04F1E
:100C7800071E15BF4FF0290A4FF0010A9146994601
:100C88004FF480664FF0010887B04FEA817B00255A
:100C9800244C012294F908305946002B05AB0093E7
:100CA8005046ACBF01230323CDE902550195C8473F
:100CB80088BB94F90830AB4221DAB8F1000F16D19D
:100CC8009DF914309DF81420AB4210DA237A47B10D
:100CD800C2F3801262F382032372012007B0BDE8D9
:100CE800F08FC2F34112911E4A424A41F2E74BF497
:100CF800001B013E4FF00008C9D13046EEE79DF9D0
:100D080014209DF81430002AE8DBB8F1000FF0D168
:100D1800DB07EED4E1E72846E0E700BF410D000815
:100D2800310D00085403002010B49DF808400294C7
:100D380010BC00F0B4BB0000F0B51F46144B0D46C4
:100D48009989002387B0CDE9023301930DF1170388
:100D580004460093372001230904164600F09FFB40
:100D680090B99DF81730012B10D80F9B324603938A
:100D78000E9B294602939DF83430204601930C9B24
:100D880000933B4600F08BFB07B0F0BD0320FBE768
:100D98005403002030B504460020013A0A44914229
:100DA80000DD30BDA4EBE203DB7B02F007052B413D
:100DB80003F0010303EB4000013AF0E72DE9F04F9F
:100DC800C04D1422002185B00446284607F04CFD8A
:100DD80000F040FBC30740F1C1802A7AC0F38003CA
:100DE80063F3C71207462A72FFF72AFF06468846AA
:100DF800FFF726FF831B61EB0802B34999424FF0C6
:100E080000039341F4D200F039FBFFF719FF804645
:100E18008946FFF715FF0026AC4AB0EB080061EBE6
:100E28000903824276EB0303F3D295F90830B34203
:100E38007BDA10260023012219461846CDE9023331
:100E4800CDE9003300F02BFB002840F08780013EFD
:100E5800F0D10026042301224FF4D5710820CDE9F2
:100E68000266CDE9004600F01AFB02287AD12B7AF7
:100E7800372066F341032B720026012331461A46B8
:100E8800CDE90266CDE9004600F009FB022870D0E2
:100E9800002863D12378012B60D801202B7A012107
:100EA80060F3C3032B72FFF7DFFE0146002862D010
:100EB80095F90830002B66DB0021032301223A2034
:100EC800CDE90211CDE9004100F0E9FA002845D149
:100ED80023782A7AC3F3801363F3820201232A72E8
:100EE800C7F3C001CDE90200CDE900401A463B2016
:100EF80000F0D5FA90BB227882BB95F90830002B18
:100F080041DB022110260123CDE900410A201146C8
:100F1800CDE9026300F0C3FA18B92378002B00F07A
:100F2800DD806B4807F008FD18E01F2E94BF0020F5
:100F3800012000210123CDE902111A46CDE9004123
:100F4800800100F0ACFA10B92378012B03D00136E8
:100F5800402EEAD17DE7102E7FF47BAF002005B04C
:100F6800BDE8F08F0028F9D1E378AA2BF6D1012645
:100F78007DE7304692E7287AC0F3C000FFF774FE99
:100F8800002895D1EAE70022052311460220CDE981
:100F98000222CDE9004200F082FA0028DED10822C0
:100FA80078212046FFF7F6FE2E7A6872370740F15F
:100FB800A180682110222046FFF7ECFE182180B29C
:100FC800688120222046FFF7E5FE6860300640F180
:100FD800998002230022AB814FF4003106230320BD
:100FE800CDE90222CDE9004200F059FA0028B5D136
:100FF8002B7A190702D523885BBAAB81A88900F040
:1010080017FA95F90830002B7CDA0022A989052304
:101018000920CDE90222CDE90042090400F03FFA97
:1010280000289BD195F808A01AF0080A40F088809B
:1010380003221A212046FFF7ADFE03222F21814605
:101048002046FFF7A7FE0422074650212046FFF757
:10105800A1FE0822834668212046FFF79BFE0C224A
:1010680080463E212046FFF795FE5F44064607F17D
:10107800020BBAF1000F0ED102227E212046FFF7A3
:1010880089FE012807D904227A212046FFF782FE2B
:1010980003283FF663AFBBF1080F7FF65FAFB9F1E6
:1010A800050F28BF4FF005090A4A0B4902FA09F251
:1010B800731C073F8A4228BF0A46BB404FEA4810C4
:1010C8004FE000BF540300207F3202003F190100A7
:1010D800FDA2000800DD6D0080A8120131462046FF
:1010E80000F06AFA064600F0D1F9002E7FF457AFF7
:1010F800734817E7682108222046FFF74BFE1021A6
:1011080080B25DE7022210260123CDE900420022C9
:1011180009201146CDE9026300F0C1F900287FF4E7
:101128001DAF2378002B7FF419AF3146204600F01D
:1011380043FA064600F0AAF9002E7FF473AF0DE7D4
:1011480002227E212046FFF725FE00283FF470AFDB
:10115800162230212046FFF71DFE431C0020594A65
:101168009B0259492B6000F065F92B7A01226FF335
:1011780004130C2120462B72FFF70CFE061E18BF25
:1011880001262B7A012266F304130D2120462B72C7
:10119800FFF700FE002818BF01262B7A66F3041318
:1011A8001A062B721ED42B7A1B072DD4474E3046B5
:1011B80000F04EF9002201234FF400711020CDE910
:1011C8000222CDE9004200F06AF900287FF4C6AE99
:1011D8002378002B7FF4C2AE2B7A012043F0010361
:1011E8002B72BCE60022A98902230720CDE902223E
:1011F800CDE90042090400F052F900287FF4AEAEB0
:101208002378002BCFD0A9E6012708264FF0020843
:1012180000223B4611463320CDE90267CDE900485C
:10122800FFF78AFD00287FF499AE94F80090B9F191
:10123800000F7FF493AE3146204600F0BDF9064614
:1012480000F024F9002E3FF489AE63783B403FF468
:1012580085AEE1782A7AC1F3400161F345122A721A
:1012680022781B4E12F00F0F1A4A494618BF16462D
:1012780095F9082003974027002AA8BF07234A4664
:101288000D20CDE901870094FFF756FD00287FF473
:1012980065AE2378002B7FF461AE3946204600F016
:1012A8008BF9074600F0F2F8002F3FF457AE237E83
:1012B8002A7AC3F3400363F386122A7277E700BFE2
:1012C80007A300080051250200DD6D000024F4008A
:1012D80020BCBE0040787D01014B1868704700BFF4
:1012E800540300201A4B2DE9F0411B7A4FF4007883
:1012F8005B074FF002064FF0010386B00DF11702AD
:101308000F46CDE902834CBF0146410200920546D3
:1013180000221120019600F0C2F89DF8174044EA17
:101328000003DBB243B94146384600F045F90446AC
:1013380000F0ACF83CB90526064B1E70064B1D6044
:10134800064B1C600024204606B0BDE8F08100BFB3
:1013580054030020500300204C03002048030020C1
:1013680000232DE9F04101254FF4007886B08DF86F
:101378001730214B0F461B7A00225B070DF117032C
:101388004CBF01464102009306462B461820CDE982
:101398000285019500F083F89DF8174044EA0002A1
:1013A80012F0FF020BD00825144B1D70144B1E6061
:1013B8000026144B1C60304606B0BDE8F08141465B
:1013C800384600F053F9074600F0A2F904460646ED
:1013D80000F05CF8042F03D10B4B3C461E68E3E792
:1013E80027B1094B3C460A251E68DDE7002CE2D1EF
:1013F800054B0B251E68D7E7540300205003002037
:101408004C0300204803002044030020082349001F
:1014180081EA0002120648BF81F00901013B4FEA48
:101428004000F4D101F07F007047C0B2FFF7A6BAC0
:1014380070470000034B1880034B1960034B1A6078
:10144800704700BF700300206C0300206803002071
:10145800FFF7A4BA08B5FFF723FA42F21072044B5B
:1014680001201A800023034A1360034A136008BD51
:10147800700300206C0300206803002010B51024BE
:10148800FF20FFF7D2FF013CFAD110BD08B50120BB
:10149800FFF76AFABDE80840FF20FFF7C6BF2DE94D
:1014A800F74F1E469DF83430074600200C460C9D29
:1014B80001920093FFF758FABFF34F8FBFF34F8F96
:1014C800019A47F040035FFA83F94FEA146B4FEA39
:1014D800144A4FEA1428A2B100214846FFF796FFA4
:1014E80001465846FFF792FF01465046FFF78EFF28
:1014F80001464046FFF78AFF01462046FFF786FF70
:10150800024648460192FFF790FF5846FFF78DFFC5
:101518005046FFF78AFF4046FFF787FF2046FFF750
:1015280084FF019A5200501CFFF77FFF0C2F02D155
:10153800FF20FFF77AFF8027FF20FFF71FFAFF2819
:10154800044607D0072E1AD8DFE806F00D0C0C1158
:1015580011191926013FEFD1FFF798FF012003B0B9
:10156800BDE8F08F2870009B13B30020F7E743070E
:1015780003D5FFF78BFF0220F1E7012803D9FFF716
:1015880085FF0320EBE72C1DFF20FFF7F7F905F88F
:10159800010BA542F8D1E6E7FF20FFF7EFF918B1F4
:1015A80064F07F042C70EAE7012C2C70DBD9E6E7A5
:1015B800FFF76CFFD9E700002DE9F84304460F4612
:1015C8000025274B1E88AE4232D8FFF739FB064666
:1015D8008946FF20FFF7D2F90F2826D9FE282ED0FA
:1015E800FFF72EFBDFF87C80821BD8F8003061EB18
:1015F80009019A4271F100011546EAD3FFF720FB71
:1016080015A3D3E90023801B61EB09094FF47A7114
:10161800A0FB010601FB096106F032FF29460246DC
:10162800D8F80030104800F0ABF90020BDE8F88386
:10163800FF20FFF7A3F90F28F7D9FE2804D1274484
:10164800BC4203D10120F1E70135BCE7FF20FFF7D9
:1016580095F904F8010BF3E700A24A040000000022
:10166800700300206C03002012A30008002A264BF8
:1016780070B504460D460CBFFE20FC201E88FFF7FF
:10168800D4FE2544A54220D1FF20FFF7CEFEFF203F
:10169800FFF7CBFE0024B4421CD3FFF7D1FA04466F
:1016A8000D46FF20FFF76AF900F01103012B18D04F
:1016B800FFF7C6FA154A001B126861EB0503904252
:1016C80073F10003EDD3042016E014F8010BFFF7C3
:1016D800ACFED7E7FF20FFF751F900F01103012B0B
:1016E8000FD100F01F000B2805D00D2805D00528C4
:1016F80005D1002000E0012070BD0220FCE7032096
:10170800FAE70134C7E700BF700300206803002030
:1017180070B50024114B1D88114B1E68AC4213D3C1
:10172800FFF78EFA04460D46FF20FFF727F9FF283A
:1017380011D0FFF785FA021B61EB0503B24273F182
:101748000003F1D3002070BDFF20FFF717F9FF2831
:1017580001D00134E2E70120F5E700BF7003002063
:10176800680300202DE9F04F07460E4691B017F99F
:10177800010B10B911B0BDE8F08F252810D1002554
:101788002B462A46AC4601E04FF0010C17F9010B35
:10179800642852D011DC392806DC302848DC42D0D5
:1017A800C0B207E00122F1E7582813D06328F7D127
:1017B80016F8040BFFF718FAD9E773280CD005DCE4
:1017C8006C28EDD1002AEDD01346DFE7752876D0D6
:1017D8007828E5D1002273E056F8048B674BB8F1FE
:1017E800000F08BF984695B9404607F0BFF8044671
:1017F80005E0013418F904309BB1A542F9D14444FD
:101808004445B4D018F8010BFFF7EEF9F8E70024C7
:10181800F0E72020FFF7E8F909F101094D45F8D86C
:10182800EDE7A146FAE7BCF1000F01D1002DABD0DE
:101838000A21303801FB0505A8E73F2D28BF3F25C1
:10184800002B4ED0F41D24F007042646636856F892
:10185800081B002B49DA01229146494263EB4303F6
:1018680000204FF03E0E8DF83F000DF13F0A002A90
:101878003FD04FF00A0BB3FBFBF80BFB18300B0CF7
:1018880003EB0043B3FBFBF00BFB10338CB204EB10
:101898000344B4FBFBF14FEA18434FEA084810EB46
:1018A800080043F100031B0443EA104300040BFB48
:1018B8001144091843F10003303464B224E00122D2
:1018C80063B1F41D24F007042646636856F8081B24
:1018D8003F2D28BF3F254FF00009C1E756F8041BEC
:1018E800F6E756F8041BCB17B3E70122F3E7C64621
:1018F800BDE701F00F04092C4FEA111141EA037109
:101908004FEA1313D8D9373451EA03000EF1FF38E0
:101918000AF8014DEBD1B9F1000F23D1C8F13E040B
:10192800AC422CBF00252D1B08F10100BCF1000FB3
:10193800A0EB05002A46A8EB050814BF302120219A
:1019480068442C4406F090FF0DEB08054FF00008A2
:10195800A0453FF40CAF15F8010FFFF745F908F162
:101968000108F5E708F140030DEB03082D23CEF13C
:10197800400408F8403CAEF10208D1E74DA3000846
:101988000FB407B504A951F8040B0191FFF7EAFE5B
:1019980003B05DF804EB04B0704700207047000006
:1019A8008AB10978BF290A4600D94BB90F4B9B79F0
:1019B800DB075FBF0A230A0901F00F0103FB0212CC
:1019C800D2B2027070470078BF28C2B200D953B9AA
:1019D800064B9B79DB075FBF0A20B2FBF0F300FBE5
:1019E800132202EB03120A70704700BF7503002030
:1019F80030B5E2B10A7813B1BF2A134614D81E4C89
:101A080002F07F03A179C9075FBF0A2502F00F0121
:101A18001B0905FB03132179CD0605D40C2B08BF40
:101A28000023140648BF0C33DBB2037030BD0278C4
:101A3800D2B20BB1BF2A18D80F4B1879C00604D4FC
:101A4800AAB10C2A15D000D974329B7902F080040F
:101A5800DB0758BF0A2002F07F025EBFB2FBF0F33B
:101A680000FB132202EB031222430A70DEE70C226A
:101A7800EBE78C22E9E700BF750300202DE9F04170
:101A880020F07F463046884615461C4600F04CFE3E
:101A9800F8B9B8F1010F1DD126F4FE77D7B9B0080F
:101AA8000D2800F2FF80DFE810F00E0017001C0080
:101AB800210026002D00320037003C00410046007E
:101AC8006100D700F80000232A4621467A48FFF72C
:101AD80067FF0120BDE8F08101232A4621467748A7
:101AE800F5E700232A4621467548F0E701232A46F0
:101AF80021467448EBE700232A4621467248FFF73F
:101B080077FFE6E701232A4621467048F7E70023D6
:101B18002A4621466E48DAE700232A4621466D48C0
:101B2800D5E700232A4621466B48D0E700232A46FA
:101B380021466A48CBE76A4A85B12378507903F091
:101B48007F0120F07F0001435171664A03F00F03C3
:101B580032F813204FF08043DA62BAE7537903F082
:101B68007002C3F3030313432370B2E75C490A7995
:101B780002F00803002D4AD0207894F90040002C88
:101B88003BDA5BB942F008020A714FF00072564B1B
:101B9800C3F88020BFF34F8FBFF36F8FC0F340129D
:101BA800C0F3801343EA4203C0F3001243EA8203FE
:101BB800C0F3400243EA0213420102F02002134339
:101BC8000A79C0F3C00422F03702134313F0010F5F
:101BD8000B714FF080434A79C0F3800064F3C71259
:101BE8004A718A7960F300028A71DA6814BF42F098
:101BF800010222F00102DA606BE7002BCED06FF30E
:101C0800C3020A714FF00072374B1A60C6E7003BF7
:101C180018BF0123D7074FEAC31348BF43F0400357
:101C280091F90500960748BF43F0200389795507C5
:101C380048BF43F010030028B8BF43F00803C807A3
:101C480048BF43F00403D10648BF43F0020392069D
:101C58008AD543F0010387E7002D7FF43AAF72B6C7
:101C68001F4BDD789A78003D18BF0125ED010AB1B8
:101C780045F010055A780AB145F020051A780AB1DE
:101C880045F0400500210520D970997059701970E8
:101C980001F068FF62B625701BE7002D7FF419AFCD
:101CA800802361E70E4B0E381DB122780344DA71A8
:101CB8000FE70344DB7957E70E0000207403002088
:101CC8000D000020730300200C0000207203002088
:101CD8000B0000200A000020090000200800002056
:101CE8007503002054A3000800E100E06FF0010232
:101CF800604B614930B41A61CB681A04DB4302F0C7
:101D0800005203F4005313430B615C4B9A79013280
:101D1800D2B23C2A1DD09A71594A5A4990780C7807
:101D2800002856D0BF2C7AD81879A04240F083807A
:101D38004C78587984427ED198798B7898427AD1B8
:101D48005378002B77D101235370137999074AD41C
:101D580071E000215A7999710132D2B23C2A01D03E
:101D68005A71D9E71A7959710132D2B2182A1A71FF
:101D7800D2D11A78587891071CD16424B2FBF4F1B7
:101D880004FB1121C1B94049404C002A08BF214633
:101D9800014411F8014C00211971D97807290EBFA7
:101DA80001210131C9B2D9709978A14206D0013117
:101DB8009970B1E73449EBE73449E9E701210C2888
:101DC80014BF40180132997012BF587059701A70B8
:101DD800A2E70120157990706D070CD5BF2C12D899
:101DE8001D79A54230D0D3782BBB0121D1700520B5
:101DF80030BC01F0B7BEBF2C11D81879A0421AD157
:101E08005C79487896E75D794C781DB1BF2CEAD9A2
:101E18009B7993B95378002BE5D15070E3E75C794F
:101E28004878002C8CD0BF2805D99B79002B87D007
:101E38008B78BF2B11D830BC70478B78BF2BD2D989
:101E48005378002BCFD10DE04D785C79A542CAD1EB
:101E580089789B799942C6D1DCE7537803F0FF0073
:101E6800002BE8D10123537013799B07BBD40028BA
:101E7800B9D1E0E7002C0140001001400800002023
:101E8800750300207203002080A3000874A30008D3
:101E98004FF080436FF001021A61074B1A7852B96C
:101EA80001211A791970D20705D5DA781AB90520EF
:101EB800D97001F057BE7047750300202DE9F04333
:101EC8005D4B5E4C9A7993B042F001029A711A798F
:101ED800002542F010021A71162283F83820A369EF
:101EE800574A43F01003A361A369564E03F0100349
:101EF8000393039B0123CDE90823032308A9304654
:101F08000A93CDE90B5504F0D3FD4FF40053142286
:101F1800294673610DA806F0A7FCA369DFF828918C
:101F280043F40063A361A369DFF8208103F400632D
:101F38000293029BE369464F43F00103E361E369BF
:101F4800A4F5644403F001030193019BD9F80C0044
:101F58004FF00073C0F30220FFF71FFD0001C0B26D
:101F680088F81903C8F8003004A804F08FFD42F27D
:101F78001073059E0DA9B6FBF3F3ADF8343042F2A9
:101F88000F732046CDE90F350E95119504F010FF1B
:101F980023680DA923F080032360A3683B40A36056
:101FA800636823F070036360A36823F08003A36071
:101FB800236843F001032360E36843F00103E3600F
:101FC800D9F80C004FF08053C0F30220FFF7E5FC6E
:101FD8000001C0B288F81C03C8F800301D4B4FF050
:101FE8008040B6FBF3F64FF47043013ECDE90F3560
:101FF800ADF834600E9504F0DBFE4FF080431A68AC
:102008004FF0807122F080021A609A684FF0E85011
:102018003A409A605A6822F070025A609A6822F030
:1020280080029A601A6842F001021A600A4A00F0B7
:1020380015F813B0BDE8F0837503002000100240C6
:10204800200020040010014000ED00E000E100E065
:10205800F8BFFFFF48E80100851A0008F0B5154CE5
:1020680000272346A4465E6856B11D68854204D8F9
:102078002E4486421BD8854202D14618B54216D353
:1020880003371B2F03F10C03EDD1002365684DB90D
:102098000C2463434CF8030001200CEB0304C4E94F
:1020A8000112F0BD0133092B04F10C04EED100201C
:1020B800F7E700BFF00300202DE9F041134C154667
:1020C800A4460022266886420DD867683E448642A8
:1020D80009D90C2404FB02CCDCF808402A46A446A3
:1020E800BDE8F04160470132092A04F10C04E9D146
:1020F80003460A4606480749002D08BF0146064818
:1021080006F01AFC0020BDE8F08100BFF0030020B3
:1021180092A300088CA3000897A30008042908D1FB
:1021280030F07F4005D12AB9034A012012681A60AD
:1021380070470020704700BF6004002038B51C4677
:1021480030F07F4328D10D46A2B121781348C94306
:10215800C9B206F0F1FB012D09D9114922880B8873
:10216800134023F4CC4302F4C04213430B800122F2
:10217800104638BD022907D0042909D00129F7D112
:10218800074B1B882370F2E7054B1B882380EEE77B
:10219800034B1B882360EAE70022E9E7CEA3000887
:1021A8005C040020014B1860704700BF60040020E9
:1021B80008B54FF080714FF0B850074AFFF74EFF4F
:1021C80030B14FF080714FF0F050044AFFF746FFEE
:1021D80000F0010008BD00BF2521000845210008C6
:1021E8002B4B93F8102112F001014FD070B4184610
:1021F8000321082402F01F0293F8126183F81021CA
:1022080090F80D212AB193F8102142F0400283F88A
:10221800102190F80E210F2A82BF93F8102142F066
:10222800200283F8102126420FD093F91021002AAA
:102238000BDBB3F810510A0242F0800202F4F0629C
:1022480025F4F0652A43A3F8102101394D1C4FEA03
:102258005404A0F14400D3D193F8103113F00201D3
:1022680009D003F02402242A0ED003F04401A1F17E
:1022780040025142514103F08803882B08BF0121D5
:1022880070BC042001F06EBC0121F4E70420F9E7DA
:102298006404002070B50D4603286ED8DFE800F00E
:1022A800022B6933364A92F8103103F001046401B5
:1022B8009E0748BF44F04004580748BF44F4805480
:1022C800190748BF44F48044DE0648BF44F00804B8
:1022D800980648BF44F40054590648BF44F08004A7
:1022E8001B0611D592F8113103F0070344EA0324C1
:1022F80044F4004408E0224B93F81021D60708D490
:10230800204806F019FB00242C80FFF769FF012004
:1023180070BD0320CC3393F8411021B393F84320C8
:102328000139D40744BF6FF3000283F8432093F8C0
:10233800402048BF4FF440469C5C02F10102D2B2F3
:1023480058BF4FF40046402A08BF002283F84020B7
:10235800002244EA002483F8411083F842203443E1
:10236800FEF77CF8D0E70138421CA3F14403D2D130
:10237800C9E7034B93F81241C6E70020C8E700BF3E
:1023880064040020E3A30008032831D870B4194C72
:1023980094F81031DD0729D5442303FB004393F853
:1023A8004320920722D593F841203F2A14D993F865
:1023B800432042F0010283F84320442303FB0044F6
:1023C80094F84230013313F0FF0308BFFF2384F869
:1023D800423070BCFFF704BF93F84050561C2A44A3
:1023E80002F03F0283F841609954E6E770BC7047F9
:1023F800704700BF6404002038B50C46032863D832
:10240800DFE800F00227383CCD060BD54FF48A727E
:1024180000212E4806F028FAFFF7E2FEFFF7E0FE5B
:10242800012038BDC4F300322849C4F3411343EAFC
:102438008203C4F3803243EAC20391F81021C4F343
:10244800C00443EA041322F01F02134381F8103139
:10245800E4E7480738D401F0070244211B4BC4F3D2
:10246800003401FB023393F8432064F3410283F8FC
:102478004320D3E7154B83F81211CFE7134D95F896
:102488001031D90703D4124806F056FAC6E71A06DF
:1024980001D41048F8E795F81101214600F007002B
:1024A800FDF7DEFF95F81031DB0606D595F811012A
:1024B800214600F00700FFF767FF95F810316FF32A
:1024C800C71385F81031A9E70020AAE764040020A3
:1024D800FDA300081AA4000813B5440702D0002081
:1024E80002B010BD20F07F401828F8D802291C46F9
:1024F8004FEAD00010D004291BD00129EFD1002ABF
:10250800EDD10DF10601FFF7C5FE0028E7D0BDF8B3
:10251800063023700120E3E72AB1198802B0BDE82C
:102528001040FFF769BF194602B0BDE81040FFF739
:10253800B1BE0AB11968F1E70DF10601FFF7AAFE6D
:102548000028CCD0BDF806302360E3E710B50C4C6A
:102558004FF48A720021204606F086F9FFF740FE04
:1025680094F810314FF0807143F0010384F8103172
:102578004FF0E050BDE81040024AFFF76FBD00BFC2
:1025880064040020E124000870B510F00306054635
:1025980017D1104615F080721C880AD015F47E0FEA
:1025A8000FD1002842D10022042908BF58801A8080
:1025B8003CE0022905D1C5F3960525B1012D00F0AF
:1025C8009980002033E0504A00286BD0D178908859
:1025D8008B0739D1660735D404F4FE4320EA03019A
:1025E80021F0400104F04803A50741EA03011FD583
:1025F80021F0040141F0020111F4F04F0CBFC1F3C6
:102608000E0141F4004111F4BE4F0ABF21F08001D0
:1026180041F0800189B2918001F0C001A1F1C003AD
:1026280059424FF00300594101F09CFA012070BD56
:10263800E007E1D521F0040141F4807141F0010186
:1026480089B2D9E70421D7E710F00400EFD001F0F0
:102658000303022B0DD0032B14D0012BB1D1136827
:1026680024F0010403F47F010C4364F3170313609F
:10267800DCE71368240499B204F47F04214361F36E
:102688001703F4E7C4F3C003C4F340009B0043EA14
:10269800C00304F0010443EA041321F01C010B43B6
:1026A800D370C3E7D17801F003010329BFD8DFE86D
:1026B80001F002040B11928879E7918811F0040166
:1026C80000D011881980B1E7918811F00401F9D080
:1026D8009178F7E7918811F00401F3D0D27850008F
:1026E800910800F0080001F002010143C2F3001252
:1026F8001144E7E7044A18B1D37864F30103CFE73C
:10270800D27802F0030252E7780500200422044B35
:102718004FF000719A804FF0C050024AFFF79EBCFC
:10272800780500209125000822BB10B504467F2CAF
:10273800104609D8042908D1A10705D10E4AA408D2
:10274800125D12021A60012010BD022907D1A207EA
:10275800FAD1094AA408125D12021A80F3E7012986
:10276800F2D104F00302012AEED1034AA408125D53
:102778001A70E8E70020704738A40008114810B51F
:102788008278818812F0040219D04278CB4301F094
:10279800010401F0070141F00801B1EB121F14BF59
:1027A8000122002203F001031B0143EA441343EA18
:1027B800C213C27802F04F021343C37010BD14460F
:1027C8001346F1E78005002000207047074B1A7870
:1027D800C2F3C001120705D59B7813F0180F14BF78
:1027E80001210021022001F0BDB900BF80050020B1
:1027F800054A937813F0600F14BF0121002161F39B
:10280800C3039370FFF7E2BF80050020064BDA7818
:1028180012F0B80F14BF012100219A7861F3041255
:102828009A70FFF7D3BF00BF800500202DE9F04F55
:10283800164630F07E42984685B007D1042905D166
:1028480046B91E60012005B0BDE8F08F840701D1AC
:10285800022904D08F4806F06FF80020F3E710F043
:102868008077B8F800500ED010F47C0FF5D1C0F383
:1028780095001EB12946FDF709FEE3E7FDF71AFEAC
:10288800A8F80000DEE79208152AE6D801A353F855
:1028980022F000BFF5280008032900086328000873
:1028A8006D29000885290008A32900086328000865
:1028B80063280008B9290008C9290008DF29000889
:1028C800F3290008052A0008172A000863280008C9
:1028D800632800086328000863280008232A0008E2
:1028E800852A0008FD2A00081D2E0008002EB4D1F4
:1028F800694B9B7CA8F80030A4E7002EADD1664A4E
:1029080053781B090F2B09D8DFE803F009161919AA
:102918001B160808161D2023080826292F46938809
:102928001907937848BF47F008075B0748BF47F087
:102938001007A8F8007085E74FF48077EFE7802745
:10294800EDE78127EBE740F20117E8E74FF48177DD
:10295800E5E740F20317E2E74FF48377DFE740F259
:102968000717DCE74C4B36B11A7865F3C7021A70C3
:10297800FFF72CFF66E71B78DB08BBE746B12F049F
:102988007FF560AF444B1A7865F302021A7059E775
:10299800414B1B7803F00703ACE73F4B26B15A784D
:1029A80065F343025A704DE75B78C3F34203A1E72E
:1029B800394B1EB1EDB21D749D7443E75B7C99E7FA
:1029C800354B26B19A7865F301029A703AE79B78FD
:1029D80003F003038EE7304B1EB1C5F30D051D81CF
:1029E80030E71B89C3F30D0384E72B4AD368002E15
:1029F80080D01B0C1B042B43D36023E7264AD368E3
:102A08001EB19BB243EA0543F6E71B0C72E7224B63
:102A18000EB19D7116E79B796CE786B1AE0441BF94
:102A28001D4B9A786FF345129A702D0641BF1A4BC9
:102A38009A786FF386129A70FFF7DAFE02E7164962
:102A48008A78C2F3C003DB03D40648BF03F580438A
:102A5800900648BF03F50053570648BF8033160653
:102A6800CA7848BF4033D50748BF1033940748BFDA
:102A7800083350077FF53EAF04333BE776B1A9042E
:102A880041BF054BDA786FF3C302DA70FFF7BEFE79
:102A9800D8E600BF58A4000880050020A4498A7819
:102AA8000889C2F3C003D206CA784FEAC33348BFC5
:102AB80003F58043170748BF03F5005308B903F52A
:102AC8008053D60648BF03F50063950648BF03F553
:102AD80080634978540648BF03F58073100648BFE1
:102AE80010337F294FEA11127FF604AF02F0070274
:102AF8001344FFE68E4CB4F80490002E00F0788161
:102B080015F4804AA58021D08A4805F015FFA04613
:102B18004FF0000AD8F8183023B11B6813B1D8F861
:102B28001C0098470AF1010ABAF1080F08F10808D1
:102B3800F0D12368B24623F08C6323F4704343F446
:102B4800C003236000236361FFF752FE6378DA074E
:102B58007FF578AE2B064FEAD518C5F3C41B46D5CA
:102B680018220021724805F07FFEFFF72FFE08F0BB
:102B78001E0818F0020F0DD0236828F0020823F071
:102B8800986323F4704343F4800323600023636154
:102B9800FFF72EFE18F0080F09D061780F2928D901
:102BA800654805F0C9FEFFF723FE28F0080885EA06
:102BB800090919F0080F0DD063695BB11A685868E4
:102BC8009268C5F3C0019047636900211A68586884
:102BD8009268904718F0100F00F09B8063787F2B65
:102BE8004FEA131535D8554805F0A6FE8FE0D846AC
:102BF800BFE7C1F34201CB1C54F8332042B9E37854
:102C08004F4843F004036261E37005F095FECAE79C
:102C180004EBC30352685868904748B9E378617871
:102C280043F004036061E3704648C1F34201ECE7F6
:102C38002368454A23F0986323F4704343F4400320
:102C480043F4A0432360C3F3422302EBC30363614D
:102C5800A9E7A278500701D43C48C5E7E90703F083
:102C6800F0027BD503F0D003902B01D0F02A5DD180
:102C7800B4F90430002B3DDAE3786FF38613E37080
:102C8800E368B3F5003F01D33148ADE72489C3F5C4
:102C98000032A242F8D34FEA530903F00103BC42C1
:102CA800234A03D05078B5EB101F0ED01BB1D37850
:102CB80043F04003D3701389DB1B1381D37843F0AF
:102CC8000803D370FFF7A2FD21E05069A4EB070EBB
:102CD8000168CDF800E0496940688C4606324946EB
:102CE8000393E047039B0744184409EB500900F09D
:102CF8000103D4E7A37C6374E37843F00803E3702B
:102D0800FFF784FD63691A6858681269904728F0CC
:102D18001008B8F1000F05D05A4641460D4805F095
:102D28000BFE5646FFF72AFD30468CE50A485BE75E
:102D3800800500207EA400088EA4000804A50008D1
:102D4800B8A40008E1A400089805002020A5000800
:102D580037A500089CA500084BA50008E02A03D069
:102D680003F0D003802B41D1B4F90430002B2EDAC4
:102D7800E3786FF38613E370E368B3F5003F83D21B
:102D88002489C3F50032A242FFF47EAF591C4FEAF2
:102D9800510903F00103BC42284A87D05078B5EBAB
:102DA800101F83D15069A4EB070E0168CDF800E02D
:102DB800896940688C46063249460393E047039B7D
:102DC8000744184409EB500900F00103E3E763697D
:102DD800217C1A685868D2689047E37843F0080362
:102DE800E370A38823F47863A3806BE71448FBE6B9
:102DF800627829F007097F2A4FEA121394BF3346F5
:102E0800083B1FFA89F988BF1BB249EA0309A8F8E9
:102E1800009017E5094C66B125F0040313B1094881
:102E280005F08AFD6378C5F3800565F300036370D8
:102E380008E563789B0003F004035BE58005002048
:102E480073A50008C7A50008014B9874704700BF18
:102E58008005002008B50F4B5A7802F0F001502980
:102E680001D07F2A01D95A692AB959780A4809092B
:102E780005F062FDFEE75A7860F307125A7028B928
:102E88009A7802F03F0242F040029A70BDE808408A
:102E9800FFF7AEBC80050020E3A50008034B9A7835
:102EA80060F382029A70FFF769BC00BF80050020BA
:102EB80038B504460A4D18220021284605F0D4FCEE
:102EC800FFF784FC074B033445F834304FF00071AA
:102ED800BDE838404FF0D050034AFFF7BFB800BFF5
:102EE8008005002018A600083528000807280CD8F7
:102EF800084B033010B553F8304044B943F830104C
:102F080003EBC00301205A6010BD00207047002069
:102F1800FAE700BF80050020002303704362704772
:102F28005F2808B54FEA501304D8002B14BF0A20B5
:102F3800062008BD052B05D00146034805F0FCFC1A
:102F48000020F6E70C20F4E734A6000808B502785C
:102F58001AB903460120187008BD024805F0ECFCB8
:102F68000020F9E76BA600080129034610B511D027
:102F7800022913D021BB026A1078062299621A70BE
:102F8800FFF762FF0920FFF765FFBDE81040012049
:102F9800FFF784BF072202700820F4E7446A012C77
:102FA80004D0BDE81040074805F0C6BC026A107896
:102FB80005221A7000229A62FFF746FF0B20E2E70B
:102FC80010BD00BF87A60008836B0A4610B55B6872
:102FD800044600F11101C06B984701462046FFF7EF
:102FE800C3FF0023637710BD38B5037823B9BDE864
:102FF8003840094805F0A0BC04460D4639B1022303
:1030080003700E20FFF726FF0120FFF747FFE37844
:1030180065F30003E37038BDC5A6000870B5044623
:1030280000200D46FFF73AFF2378042B00F081803B
:10303800072B00F09680022B40F0B380A689002E63
:103048005AD04FF6FF739E420DD1002D08BF4FF4A2
:1030580080750023A581E3810120FFF71FFFE37836
:10306800DA0716D570BDE3892BBB01202574FFF75D
:1030780015FFE389A28901339BB29A42E381EBD120
:103088000023A381E37813F00102EBD1257C012D05
:1030980018D004F111020023E2620C226377C4E91C
:1030A8000C2304230A202370FFF7D4FEBDE87040E8
:1030B8000120FFF7F3BE227C012ADAD1032E08BFD4
:1030C800E554D6E762F34103E37040F201336178D7
:1030D800A380E171A17803232172211D21620521BA
:1030E80023700F20C4E90912A571FFF7B3FE236A04
:1030F8001878FFF7A9FED9E7012D03D14FF6FF7322
:10310800A381ACE7290606D5A36BE06B1B6805F025
:1031180007019847A3E7062D06D1254805F00CFCC2
:103128003046FFF797FE9AE72946224805F004FC47
:1031380095E7637F7BB9012328466574A377FFF77A
:10314800EFFE6077637FA17F9942AFD12046BDE84B
:103158007040FFF739BFA37F5A1C2344A2775D74E0
:10316800F0E7E36A1BB9144805F0E6FBFEE75A1CD2
:10317800E2621D70636B226B01339342636395D1E6
:103188000023C4E90B33E378DB073FF56BAFA36B90
:10319800E06B9B68984701462046BDE87040FFF702
:1031A800E3BE2946BDE87040044805F0C5BB00BF32
:1031B800DEA60008EEA600080AA700082BA700084C
:1031C80038B50023C0E90833C378044613F001007A
:1031D80042D1217805290BD006292ED0032936D1D2
:1031E80013F002031CD02070BDE83840FFF732BE50
:1031F800224643F0020302F8040F0125E37003237B
:10320800C4E9095023700F202262FFF723FE236AC6
:103218001878FFF719FEBDE838400120FFF73EBED9
:1032280004F11102E2620C226377C4E90C2304233F
:103238000A202370FFF70EFEEDE7A36BE06B9B6897
:10324800984701462046BDE83840FFF78DBE034841
:10325800BDE8384005F070BB38BD00BF4BA700087B
:103268002DE9F74F04469946D0E909530020ED1A95
:103278000E469046FFF712FE002D56D00C9FAF4227
:1032880028BF2F46B9F1000F39D006F101093046A1
:103298004E46236A07F1FF3A197898F80030013D45
:1032A80003EB0121FDF7F2F8236A01332362A36AD5
:1032B8000133A3624FEA5A0906EB5A0B5E4520D147
:1032C8006FF0010303FB09F313EB0A0F1D440AD047
:1032D800236A013D1B7888F80030236A0133236292
:1032E800A36A0133A362E5B1236A1878FFF7ACFD3E
:1032F8000120FFF7D3FD384603B0BDE8F08FBA468A
:10330800D8E7236A721C304619880192FDF7BEF887
:10331800236A019A02332362A36A16460233A36220
:10332800CCE72046FFF74CFFE5E7024805F004FB31
:10333800FEE700BF70A7000810B504460020FFF79D
:10334800ADFDA36A626A01339342A3620AD0236A7D
:103358005A1C22625878FFF777FDBDE8104001201B
:10336800FFF79CBD2046BDE81040FFF729BF0000CD
:1033780038B504460D480D4605F0DEFA0023C4E9C9
:103388000B33636325B9BDE83840094805F0D4BA62
:10339800607CFFF7C5FD6077C0B28542F3D129464E
:1033A8002046BDE83840FFF70FBE00BF8DA70008D4
:1033B800A1A700082DE9F74F04469946D0E90C5318
:1033C8000020ED1A0E469046FFF768FD002D60D0EC
:1033D8000C9FAF4228BF2F46B9F1000F34D0E36AE3
:1033E80098F80020013D1A70E36A07F1FF390133AC
:1033F800E362636B013363634FEA590A06EB590BC7
:103408005E4523D16FF0010303FB0AFA19EB0A0F9B
:1034180055440ED03046FDF74DF8E36A013D18706B
:10342800000A88F80000E36A0133E362636B013342
:1034380063632378042B1CD12046616BFFF798FF48
:10344800384603B0BDE8F08FB946D5E7731C30465F
:103458000193FDF72FF8E26A019B1070E26A000AF7
:103468005070E26A1E460232E262626B02326263A6
:10347800C6E71DB10120FFF711FDE1E7A36BC4E921
:103488000B559B68E06B984701462046FFF76CFD9B
:10349800D6E7024805F050FAFEE700BFB3A70008D8
:1034A8000023C0E90812836270470023C0E90B12A9
:1034B8004363704710B404460846C4E90E23024922
:1034C800224610BCFFF712BDD4A7000880F8591097
:1034D8007047000038B5044690F8580018B91C48E1
:1034E80005F02AFAFEE7216D012801F101022265A3
:1034F80018BF0220236C626C9847054650B9032315
:1035080084F85D304FF4884384F85800A4F85A30A2
:10351800002510E0636D94F85820013B012A63658B
:103528000BD14FF400722046616CFFF7B9FF636D51
:103538000BB984F85830284638BD33B14FF40072BF
:103548002046616CFFF7B1FFF5E784F85830DFE7F4
:10355800F0A70008032A70B505460C4616460ED09B
:10356800042A20D0012A3AD10A220021A01C05F001
:103578007BF90A23637002332670E01870BD1322AA
:103588000021A01C05F070F9B5F84C301B0AA37295
:10359800B5F84C30E372022323730023637340238E
:1035A80023751323E6E707220021A01C05F05CF928
:1035B80095F84A30A370AB6CC3F30F23E370AB6C80
:1035C800237195F84B30637195F84A30A371AB6C51
:1035D800C3F30F23E371AB6C23720723CAE7002000
:1035E800CCE710B590F858300446012B09D0022BCF
:1035F8000DD02046012204F15C01FFF751FF0220A3
:1036080010BDFFF767FF0028F3D00020F8E7FFF7A9
:1036180061FF0028EDD00120F2E700002DE9F34119
:1036280002260A4480F85C6012F8015C044615F032
:10363800030509D0A44805F07FF9052384F85D3017
:103648000023A4F85A3038E00B460978122900F014
:1036580093800BD80A2912D80A2910D8DFE801F07C
:103668002A0F0FB70F0F0F0F350F670028294CD0FF
:1036780009D81A2900F0CB80252900F00A8193483F
:1036880005F05AF9FEE72A29F9D1D3F80220B3F850
:1036980007305BBA9BB283B190F85910002940F00B
:1036A800FE8012BAC0E91423416C4FF4007280F80E
:1036B800586057E0002380F85C300122204604F16E
:1036C8005C01FFF7EDFE022552E0187994F85920C5
:1036D800002808BF4FF48070002A40F0E0805A7834
:1036E8005988012384F8583013044ABA03F4F813AC
:1036F80092B21344C4E914302046FFF7EBFE0028C9
:10370800DBD0002384F85C3032E090F85920002A9E
:1037180040F0C5800121D3F80220B3F8073012BA6F
:103728005BBA9BB280F8581002654365E5E71879E3
:1037380094F85920002808BF4FF48070002A40F000
:10374800AE805A785988022384F8583013044ABA4C
:1037580092B203F4F8131344C4E914304FF400721E
:103768002046616CFFF7A1FE0023012584F85C3038
:10377800284602B0BDE8F0811A799878002A59786D
:1037880008BF4FF4807294F85930C0B9CE0716D4E8
:10379800616C4BB17F230B70052A28BF0522204698
:1037A800616CFFF77DFEACE70D700921636C5D70FD
:1037B800636C9970636CDD70636C1D71ECE7002BB2
:1037C8006DD1052384F85D304FF4105339E71E7925
:1037D8000021002E08BF4FF48076406C324605F079
:1037E80043F8F022636C0E2E1A704FF00602636CD9
:1037F800DA71B4F85A30626C4FEA13231373B4F8D1
:103808005A20636C5A73324628BF0E22C7E71F79C5
:1038180058789A78002F636C08BF4FF480770007B8
:103828004FEA92115D7002F03F029D7014D51E1D83
:10383800DD70114308D03F2A1BD031462046FFF7E0
:1038480089FE06460028BCD0636CF21A511EBA42A3
:1038580028BF3A461970A2E708209E72D8701D71D9
:103868005D719D71DD711D725D7203F10C06DD7273
:10387800DFE74FF00008424631462046FFF76AFE70
:1038880008F10108002818BF0646B8F13F0FF2D129
:10389800DAE75B78DB0794D490F859302BB105232D
:1038A80084F85D304FF41453CBE6036C2946284660
:1038B80001AA984708B1019B53B9032384F85D30E6
:1038C8004FF44053BDE600BF11A800082EA8000819
:1038D800626C013B01931B0E1370636CBDF80620EC
:1038E80002215A70019B626C1B0A9370636C019AE7
:1038F800DA704FF4007301930023626C1371626CE9
:103908005371626C9171626CD371082247E700BFF2
:103918002DE9FF41884600210264054614464364A8
:1039280003AA0846A047002843D001263746039C2F
:10393800B4F5006F1BD90021DFF894C01CF8013BD7
:10394800B4FBF3F003FB104272B903FB07F2FF2A42
:1039580008D97343B3F5803F06D204461E463A465B
:103968001746E5E70446FBE701313629E6D1230C83
:1039780007D00126174804F0DFFF039C230C1BD156
:10398800012707FB04F17143039A8A4217D01248B2
:10399800521A04F0D1FFAB6C414664F31703AB64D1
:1039A80028462B460D4A85F84B70A5F84C60FFF762
:1039B80081FD04B0BDE8F08164087600DEE700927E
:1039C80033463A462146064804F0B6FFE3E700BF0F
:1039D80028A9000855A8000889A800081CA90008FB
:1039E800D0A80008704708B500F140010122FFF790
:1039F80057FD022008BD000038B50B4602211A44C5
:103A080080F8401012F8012C044692070AD0154895
:103A180004F092FF0122204604F14001FFF740FD27
:103A280002251DE0197829B1122906D00E4804F0A4
:103A380083FFFEE780F84010ECE71A799D78002AAA
:103A480008BF4FF480725978002DE3D1CB07E1D439
:103A5800052A28BF05220549FFF722FD84F84050B2
:103A6800284638BD11A800082EA800085EA900083D
:103A78000346014AFFF71EBD64A900082000C030B4
:103A88004022E96A0905890E477A7B0906D27F0830
:103A98007F00037A8B4200D1013747720C30013A1C
:103AA800F2D10121C943442000012044FF22013200
:103AB80001622430013AFBD170470121C943000B50
:103AC8008446442000012044FF220132036ADB09B6
:103AD800634500D101622430013AF7D1704731B50E
:103AE800174C2046002142F6C40204F0BDFE802592
:103AF800254401BCE8631348A8600430E86000204E
:103B0800FFF7CFFF0020104980231B06421E01301B
:103B18000860C8728A720C314028F7D10C39FF202E
:103B2800C872094980228A723C2000012044002181
:103B380000220270FF22013001318029F9D130BD05
:103B4800D80500200000C0BF98060020D9790029B8
:103B580002D102A109588B4662B67047553F00084A
:103B6800513F00080122083082408140094B72B65B
:103B7800D86990430843D8611A6A0020510806D3CF
:103B8800100AD969090A0840000600D004205871B3
:103B9800DCE70000580600200D492022821A02DACC
:103BA80080000858704780319200974400BF8868A9
:103BB80070474869704708697047886A7047C869DC
:103BC8007047086A7047086B7047C86A70470000FA
:103BD800D8050020184B2022821A03DA800000D072
:103BE8001950704780339200974400BF986070471F
:103BF80058617047186170479862704772B6D8610B
:103C08001A6A0020510806D3100AD969090A08401F
:103C1800000600D00420587198E772B61A62002096
:103C2800510806D3100AD969090A0840000600D0CD
:103C3800042058718AE70000D8050020002180225E
:103C480012061143524604239A46002372B66B713A
:103C5800B94B9B46131FDA0F43446B628846043105
:103C68008946EB69B5498B43D20713430343EB619C
:103C78002B6A3F210F221A4092008B4313432B6279
:103C880062B658478021DAE73420FBE7A862696BFF
:103C9800490D49054000400B80000143696310202D
:103CA800F0E7A862696B490D49054000400B8000A8
:103CB800014369631420E5E7A862696B490D49056A
:103CC8004200520B920011436963E96A0905090D24
:103CD800020B12031143E9624100082000D2ADE74C
:103CE800D0E7A862696B490D49054200520B920062
:103CF80011436963E96A0905090D020B12031143AF
:103D0800E96241000C2000D298E7BBE7A862696B22
:103D1800490D49054200520B920011436963E96A53
:103D28000905090D020B12031143E9620420A9E7F2
:103D3800A862696B490D49054200520B9200114374
:103D48006963E96A0905090D020B12031143E96267
:103D5800082097E7A862696B490D49054200520B94
:103D6800920011436963E96A0905090D020B120300
:103D78001143E9620C2085E7FEF714FA182081E761
:103D8800FEF710FA1C207DE730207BE77C20F10C41
:103D98000140615832B28918F6D6B20B024000D001
:103DA800A150C8460426B144B24658477C20F10CBD
:103DB8000140615832B28918B20B024000D0A150BC
:103DC800C8460426B144B24658477C20F10C01404D
:103DD800615832B20023914200DA0123B20B02404B
:103DE80000D0A350C8460426B144B24658477C20A8
:103DF800F10C0140615832B20023914200D20123F4
:103E0800B20B024000D0A350C8460426B144B246C3
:103E180058477C20F10C01406158B2B21140B20BF6
:103E2800024000D0A150C8460426B144B2465847C3
:103E38007C20F10C01406158B2B21143B20B024030
:103E480000D0A150C8460426B144B24658477C2049
:103E5800F10C01406158B2B25140B20B024000D09F
:103E6800A150C8460426B144B24658473104F2026C
:103E7800D20E01D09200A150C8460426B144B246E1
:103E880058470426B144C846B144B24658477C2036
:103E9800F10C01406158B20B0240A2589142F0D196
:103EA8004946320492135218C846914600218A4660
:103EB80000F04CF87C20F10C01406158B20B024034
:103EC800A2589142DDD04946320492135218C8468E
:103ED800914600218A4600F039F8B101C90E8900DF
:103EE80061580029CDDC4946320492135218C8465D
:103EF800914600218A4600F029F8B101C90E8900CF
:103F080061580029BDDD4946320492135218C8464B
:103F1800914600218A4600F019F8094CA546064842
:103F28008346084C80252544AB689846EB6899463B
:103F38002B799A460AE00000553F00087C00008073
:103F480000500020D805002000209BE64746442664
:103F580036012644F804000E2421414376187A09D4
:103F6800336A9A424BD02436243E520153000CD374
:103F780008D42B6A9B0802D2D300DB0826E0384617
:103F8800FFF784FE2B6A9B08F9D23C231B012344CC
:103F9800100B50404003400E185CFF2813D00C2330
:103FA8005843C0300019036853401B0B09D1437AAA
:103FB8005B0806D3DB0611D543681005000D1B18F6
:103FC80004E0C07AE9E73846FFF776FE180F0AD111
:103FD800184631462022FCF749FA0EE03846FFF72A
:103FE800A7FE1800C8E608B4184620210022334668
:103FF800FEF762F8002808BCF3D07A093262FF069F
:10400800FF0EF659B10E89008F4400BFD8E000BFFB
:1040180069E300BF7DE000BF78E000BF85E000BF36
:1040280096E000BFA7E000BFB5E000BFAEE600BF66
:10403800BCE600BFC9E600BFD9E600BFE9E600BF9D
:10404800F6E600BF03E700BF10E700BF01F0F6FA8D
:1040580001F0D6FD01F0CFF901F0DEF917E700BF56
:1040680028E700BF39E700BF47E700BF01F0F2F9D2
:1040780001F0F0F901F0EEF901F0ECF901F0EAF9DC
:1040880001F0E8F901F0E6F901F0E4F900F0C4FB09
:1040980000F020FC00F07EFC00F0EEFC00F04BFD90
:1040A80000F0A6FD00F003FE01F0D4F900F070FE68
:1040B80000F0D9FE00F03DFF01F007F801F0CAF961
:1040C80001F0C8F901F067F801F0C4F901F036FC15
:1040D80001F0ECFD01F08FF901F088F901F0BAF96F
:1040E80001F059FE01F087F901F0B4F901F097FCED
:1040F80002F003F801F07FF901F0ACF901F0AAF938
:1041080001F01FFF01F077F901F0A4F942460832E7
:10411800E2674946B3011B09090F09071943C84655
:10412800894600229246FFF711FF7C20F10C0140DE
:104138006158B20B0240A25891423CD14946320420
:1041480092135218C846914600218A46FFF7FEFE90
:104158007C20F10C01406158B20B0240A2589142F8
:1041680029D04946320492135218C8469146002174
:104178008A46FFF7EBFEB101C90E89006158002994
:1041880019DC4946320492135218C8469146002158
:104198008A46FFF7DBFEB101C90E89006158002984
:1041A80009DD4946320492135218C8469146002147
:1041B8008A46FFF7CBFEC8460426B144B2465847A4
:1041C800B106890E89008F4400BF7EE000BF01F070
:1041D80041F990E000BF9EE000BFACE000BF01F0F5
:1041E80039F9BBE000BFCCE000BFDDE000BFE5E08F
:1041F80000BF01F02FF901F02DF9ECE000BFECE071
:1042080000BF01F027F901F025F9E8E000BFF1E06F
:1042180000BFF9E000BF02E100BF01F01BF901F0A7
:1042280019F901F017F901F015F902E100BF20E1D1
:1042380000BF3EE100BF52E100BF01F00BF901F001
:1042480009F901F007F901F005F95EE100BF71E134
:1042580000BF80E100BF90E100BF9FE100BFAEE179
:1042680000BFBDE100BFCCE100BF01F0F3F801F0F1
:10427800F1F8D8E100BFEAE100BF01F0EBF801F086
:10428800E9F801F0E7F801F0E5F801F04FF801F07E
:104298005DF801F06BF801F079F801F087F801F0AA
:1042A800D9F801F093F801F0D5F801F0D3F801F04E
:1042B800D1F801F0CFF801F0CDF801F0CBF801F01A
:1042C800C9F801F0C7F801F0C5F8730A04D1C84667
:1042D8000426B144B24658477C200340F7D0B10BBE
:1042E800014061587205D20E9140E150C84604263B
:1042F800B144B24658477C20B10B01406158720561
:10430800D20ED140720A024000D0A150C8460426FD
:10431800B144B24658477C20B10B01406158720540
:10432800D20E1141720A024000D0A150C84604269C
:10433800B144B24658477C20B10B01406158F20C99
:104348000240A258D206D20E9140720A024000D012
:10435800A150C8460426B144B24658477C20B10B48
:1043680001406158F20C0240A258D206D20ED14048
:10437800720A024000D0A150C8460426B144B24691
:1043880058477C20B10B01406158F20C0240A258FA
:10439800D206D20E1141720A024000D0A150C8467E
:1043A8000426B144B2465847B101C90E8900615884
:1043B800C846894600229246FFF7C8FDB101C90EDA
:1043C8008900615842460832E267C8468946002299
:1043D8009246FFF7BBFD202054E4242052E469698B
:1043E8003204D20E01D09200A150C8460426B1442E
:1043F800B2465847B101C90E890061586961C8467B
:104408000426B144B246584729693204D20E01D075
:104418009200A150C8460426B144B2465847B1019B
:10442800C90E890061582961C8460426B144B246BC
:1044380058477C22B00B10402058F10C11406158AD
:1044480086B28FB20014091432467A4303464B43AE
:104458004E4347433014391436043F0492194341FC
:10446800D2194B416B612A61C8460426B144B24651
:1044780058477C22B00B10402058F10C114061586D
:1044880086B28FB2000C090C32467A4303464B437E
:104498004E434743300C390C36043F0492194341CC
:1044A800D2194B416B612A61C8460426B144B24611
:1044B80058477C22B10B1140615800290AD0F00CF2
:1044C8001040205807460E4602F0CEFF4643B91B5F
:1044D80069612861C8460426B144B24658477C221F
:1044E800B10B1140615800290AD0F00C1040205837
:1044F80007460E4602F0A6FF4643B91B69612861CC
:10450800C8460426B144B24658477C20F10C014005
:104518006158B20B0240A258891808D6720A0240A4
:1045280000D0A150C8460426B144B24658473026A8
:10453800FFF7A8FB7C20F10C01406158B20B024048
:10454800A2588918720A024000D0A150C846042611
:10455800B144B24658477C20F10C01406158B20B77
:104568000240A258891AE2D6720A024000D0A1502D
:10457800C8460426B144B24658477C20F10C014095
:104588006158B20B0240A258891A720A024000D040
:10459800A150C8460426B144B24658477C20F10CC5
:1045A80001406158B20B0240A2581140720A024001
:1045B80000D0A150C8460426B144B24658477C20D2
:1045C800F10C01406158B20B0240A2581143720A23
:1045D800024000D0A150C8460426B144B24658470C
:1045E8007C20F10C01406158B20B0240A2585140A6
:1045F800720A024000D0A150C8460426B144B2460F
:1046080058477C20F10C01406158B20B0240A25877
:104618001143C943720A024000D0A150C84604267B
:10462800B144B24658477C20F10C01406158B20BA6
:104638000240A2580023914200DA0123720A024084
:1046480000D0A350C8460426B144B24658477C203F
:10465800F10C01406158B20B0240A258002391426C
:1046680000D20123720A024000D0A350C846042693
:10467800B144B2465847B101C90E8900615832B2F7
:10468800914201DAFFF700FBC8460426B144B2465E
:104698005847B101C90E8900615832B2914201D21E
:1046A800FFF7F2FAC8460426B144B2465847B101AA
:1046B800C90E8900615832B2914201D1FFF7E4FA7C
:1046C800C8460426B144B2465847B101C90E89000C
:1046D800615832B2914201D0FFF7D6FAC846042693
:1046E800B144B2465847F102890E8F4400BF3FE0FB
:1046F80056E068E080E01AE019E018E017E018E0FA
:1047080025E0B8E7C5E7D2E711E0DEE70FE02CE0E7
:1047180043E055E06DE00AE009E008E007E006E064
:1047280005E004E003E002E001E000E0FFE700F05C
:1047380091FEB101C90E8900615832B2914201DB84
:10474800FFF7A2FAC8460426B144B2465847B10159
:10475800C90E8900615832B2914201D3FFF794FA29
:10476800C8460426B144B246584741460831E16775
:10477800B101C90E89006158090009D549463204BA
:1047880092135218C846914600218A46FFF7DEFB6D
:10479800C8460426B144B246584741460831E16745
:1047A800B101C90E890061580900F1D449463204A3
:1047B80092135218C846914600218A46FFF7C6FB55
:1047C80041460831E167B101C90E89006158090005
:1047D80009D54946320492135218C8469146002119
:1047E8008A46FFF7B3FB0426B144C846B144B24633
:1047F800584741460831E167B101C90E890061583F
:104808000900F0D44946320492135218C84691461A
:1048180000218A46FFF79AFB7C27F10C3940615842
:1048280032B289184B000CD308D42B6A9B0802D2E9
:10483800CB00DB0826E00846FFF728FA2B6A9B081E
:10484800F9D23C231B012344080B48404003400E87
:10485800185CFF2813D00C235843C0300019036894
:104868004B401B0B09D1437A5B0806D3DB062ED5D8
:1048780043680805000D1B1804E0C07AE9E70846FC
:10488800FFF71AFA180F0AD1E86B834211D20FB456
:104898001846291C0122FBF7E9FD0FBC0CE00FB4F8
:1048A8001846012100222B1CFDF706FC00280FBC2E
:1048B80002D11800FFF764FA0022AA56B10B39405A
:1048C80000D06250C8460426B144B246584708464C
:1048D800FFF72EFA7C27F10C3940615832B289185B
:1048E800CB0702D00846FFF7D1F94B000CD308D408
:1048F8002B6A9B0802D2CB00DB0826E00846FFF7AC
:10490800C5F92B6A9B08F9D23C231B012344080BE9
:1049180048404003400E185CFF2813D00C2358432E
:10492800C030001903684B401B0B09D1437A5B0860
:1049380006D3DB06CBD543680805000D1B1804E039
:10494800C07AE9E70846FFF7B7F9180F0AD1E86B0C
:10495800834211D20FB41846291C0222FBF786FDA8
:104968000FBC0CE00FB41846022100222B1CFDF7E7
:10497800A3FB00280FBC02D11800FFF701FA0022A0
:10498800AA5EB10B394000D06250C8460426B14433
:10499800B2465847B101C90E8900615832B2891828
:1049A8008B089B00591A0331C9009F0702D018468B
:1049B800FFF76CF95F000CD308D42F6ABF0802D246
:1049C800DF00FF0826E01846FFF760F92F6ABF08E6
:1049D800F9D23C273F012744180B58404003400EAA
:1049E800385CFF2813D00C277843C03000190768BB
:1049F8005F403F0B09D1477A7F0806D3FF0638D5B9
:104A080047681805000D3F1804E0C07AE9E7184622
:104A1800FFF752F9380F0AD1E86B874211D20FB469
:104A28003846291C0422FBF721FD0FBC0CE00FB40B
:104A38003846042100222B1CFDF73EFB00280FBC42
:104A480002D13800FFF79CF92A688A404942203190
:104A5800F302DB0E9B00E3588B40CB401343F2027A
:104A6800D20E01D09200A350C8460426B144B246E3
:104A780058471846FFF75CF97C27F10C3940615814
:104A880032B28B18990702D01846FFF7FFF8590081
:104A98000CD308D4296A890802D2D900C90826E0AB
:104AA8001846FFF7F3F8296A8908F9D23C21090169
:104AB8002144180B58404003400E085CFF2813D0CF
:104AC8000C214843C030001901685940090B09D12D
:104AD800417A490806D3C906CBD541681805000DA7
:104AE800091804E0C07AE9E71846FFF7E5F8080F67
:104AF8000AD1E86B814211D20FB40846291C04225E
:104B0800FBF7B4FC0FBC0CE00FB4084604210022EC
:104B18002B1CFDF7D1FA00280FBC02D10800FFF7C3
:104B28002FF92A68B10B394000D06250C8460426D4
:104B3800B144B24658477C27F10C3940615832B22B
:104B480089184B000CD308D42B6A9B0802D2CB00DF
:104B5800DB0826E00846FFF799F82B6A9B08F9D28C
:104B68003C231B012344080B48404003400E185CBB
:104B7800FF2813D00C235843C030001903684B405A
:104B88001B0B09D1437A5B0806D3DB062DD5436896
:104B98000805000D1B1804E0C07AE9E70846FFF78E
:104BA8008BF8180F0AD1E86B834211D20FB418465C
:104BB800291C0122FBF75AFC0FBC0CE00FB4184665
:104BC800012100222B1CFDF777FA00280FBC02D127
:104BD8001800FFF7D5F82A78B10B394000D0625099
:104BE800C8460426B144B24658470846FFF7A0F81D
:104BF8007C27F10C3940615832B28918CB0702D0B2
:104C08000846FFF743F84B000CD308D42B6A9B08DF
:104C180002D2CB00DB0826E00846FFF737F82B6AFC
:104C28009B08F9D23C231B012344080B484040034E
:104C3800400E185CFF2813D00C235843C0300019CD
:104C480003684B401B0B09D1437A5B0806D3DB068C
:104C5800CBD543680805000D1B1804E0C07AE9E7C6
:104C68000846FFF729F8180F0AD1E86B834211D2DA
:104C78000FB41846291C0222FBF7F8FB0FBC0CE006
:104C88000FB41846022100222B1CFDF715FA002844
:104C98000FBC02D11800FFF773F82A88B10B39400E
:104CA80000D06250C8460426B144B2465847B10104
:104CB800C90E8900615832B289188B089B00C91A3D
:104CC800C9009F0702D01846FEF7E0FF5F000CD32B
:104CD80008D42F6ABF0802D2DF00FF0826E0184672
:104CE800FEF7D4FF2F6ABF08F9D23C273F012744BB
:104CF800180B58404003400E385CFF2813D00C278F
:104D08007843C030001907685F403F0B09D1477AE4
:104D18007F0806D3FF0638D547681805000D3F18E9
:104D280004E0C07AE9E71846FEF7C6FF380F0AD153
:104D3800E86B874211D20FB43846291C0422FBF7CE
:104D480095FB0FBC0CE00FB43846042100222B1C45
:104D5800FDF7B2F900280FBC02D13800FFF710F8B0
:104D68002A68CA4049422031F302DB0E9B00E3580F
:104D7800CB408B401343F202D20E01D09200A350D5
:104D8800C8460426B144B24658471846FEF7D0FF35
:104D98007C27F10C3940615832B28918B20B3A407D
:104DA800A2582B6A5B0C51D24B000CD308D42B6A47
:104DB8009B0802D2CB00DB0827E00846FEF771FF0C
:104DC8002B6A9B08F9D23C231B012344080B48405B
:104DD8004003400E185CFF2814D00C235843C03001
:104DE800001903684B401B0B0AD1437A5B0807D3B1
:104DF800DB0632D534D343680805000D1B1804E0E0
:104E0800C07AE8E70846FEF76CFF180F0BD1E86B8D
:104E1800834213D22A700FB41846291C0122FBF7CB
:104E28002DFB0FBC0DE02A700FB41846012101229A
:104E38002B1CFDF741F900280FBC02D11800FEF722
:104E48009FFFC8460426B144B2465847FEF729FEDC
:104E5800C8460426B144B24658470846FEF77AFFCA
:104E68000846FEF753FF7C27F10C3940615832B2EF
:104E78008918B20B3A40A258CB0702D00846FEF771
:104E880010FF2B6A5B0CE1D24B000CD308D42B6AC1
:104E98009B0802D2CB00DB0827E00846FEF701FF9B
:104EA8002B6A9B08F9D23C231B012344080B48407A
:104EB8004003400E185CFF2814D00C235843C03020
:104EC800001903684B401B0B0AD1437A5B0807D3D0
:104ED800DB06C2D5C4D343680805000D1B1804E0DF
:104EE800C07AE8E70846FEF7FCFE180F0BD1E86B1E
:104EF800834213D22A800FB41846291C0222FBF7DA
:104F0800BDFA0FBC0DE02A800FB418460221012219
:104F18002B1CFDF7D1F800280FBC02D11800FEF7B2
:104F28002FFFC8460426B144B24658471046FEF73C
:104F3800FFFEB101C90E8900615832B289188A088A
:104F48009200511A0331C900970702D01046FEF7A4
:104F58009DFE57000CD308D42F6ABF0802D2D70091
:104F6800FF0826E01046FEF791FE2F6ABF08F9D227
:104F78003C273F012744100B50404003400E385C4B
:104F8800FF2813D00C277843C03000190768574012
:104F98003F0B09D1477A7F0806D3FF06C6D5476875
:104FA8001005000D3F1804E0C07AE9E71046FEF747
:104FB80083FE380F0AD1E86B874211D20FB4384606
:104FC800291C0422FBF752FA0FBC0CE00FB4384638
:104FD800042100222B1CFDF76FF800280FBC02D11A
:104FE8003800FEF7CDFE2B68F702FF0EBF00E75929
:104FF800CF4049422031CB408B403B43900702D001
:105008001046FEF74EFE286A400C57D250000CD3CB
:1050180008D4286A800802D2D000C00827E01046C9
:10502800FEF73FFE286A8008F9D23C2000012044A0
:10503800110B51404903490E415CFF2914D00C2043
:105048004143C031091908685040000B0AD1487A19
:10505800400807D3C0062BD52DD348681105090D84
:10506800401804E0C97AE8E71046FEF73AFE010F57
:105078000BD1E96B884213D22B600FB40046291C70
:105088000422FBF7FBF90FBC0DE02B600FB40046C0
:10509800042101222B1CFDF70FF800280FBC02D1B8
:1050A8000000FEF76DFEC8460426B144B2465847D4
:1050B8001046FEF74FFE1046FEF728FEFEF7F1FCFD
:1050C800C8460426B144B24658477C27F10C3940FB
:1050D800615832B25218B10B39406158930702D067
:1050E8001046FEF7DEFD2B6A5B0CE7D253000CD3AB
:1050F80008D42B6A9B0802D2D300DB0827E01046AD
:10510800FEF7CFFD2B6A9B08F9D23C231B012344F1
:10511800100B50404003400E185CFF2814D00C239D
:105128005843C0300019036853401B0B0AD1437A17
:105138005B0807D3DB06BBD5BDD343681005000D5C
:105148001B1804E0C07AE8E71046FEF7CAFD180FFE
:105158000BD1E86B834213D229600FB41846291C7F
:105168000422FBF78BF90FBC0DE029600FB4184639
:10517800042101222B1CFCF79FFF00280FBC02D141
:105188001800FEF7FDFDC8460426B144B24658474C
:105198001046FEF7CDFDB101C90E8900615832B243
:1051A80089188A089200891AC900970702D0104600
:1051B800FEF76CFD57000CD308D42F6ABF0802D243
:1051C800D700FF0826E01046FEF760FD2F6ABF08EB
:1051D800F9D23C273F012744100B50404003400EB2
:1051E800385CFF2813D00C277843C03000190768B3
:1051F80057403F0B09D1477A7F0806D3FF06C7D52A
:1052080047681005000D3F1804E0C07AE9E710462A
:10521800FEF752FD380F0AD1E86B874211D20FB45E
:105228003846291C0422FBF721F90FBC0CE00FB407
:105238003846042100222B1CFCF73EFF00280FBC37
:1052480002D13800FEF79CFD2B68F702FF0EBF0065
:10525800E7598F40494220318B40CB403B43900770
:1052680002D01046FEF71DFD286A400C51D25000AE
:105278000CD308D4286A800802D2D000C00827E0DE
:105288001046FEF70EFD286A8008F9D23C2000017E
:105298002044110B51404903490E415CFF2914D0A9
:1052A8000C204143C031091908685040000B0AD14D
:1052B800487A400807D3C00632D534D34868110568
:1052C800090D401804E0C97AE8E71046FEF709FD21
:1052D800010F0BD1E96B884213D22B600FB4004643
:1052E800291C0422FBF7CAF80FBC0DE02B600FB491
:1052F8000046042101222B1CFCF7DEFE00280FBC0F
:1053080002D10000FEF73CFDC8460426B144B2466F
:105318005847FEF7C6FBC8460426B144B24658476C
:105328001046FEF717FD1046FEF7F0FC7C20F10C46
:1053380001406158B20B0240A258914201DBFEF7CE
:10534800A3FCC8460426B144B24658477C20F10C59
:1053580001406158B20B0240A258914201D3FEF7B6
:1053680093FCC8460426B144B24658477C20F10C49
:1053780001406158B20B0240A258914201DAFEF78F
:1053880083FCC8460426B144B24658477C20F10C39
:1053980001406158B20B0240A258914201D2FEF777
:1053A80073FCC8460426B144B24658477C20F10C29
:1053B80001406158B20B0240A258914201D1FEF758
:1053C80063FCC8460426B144B24658477C20F10C19
:1053D80001406158B20B0240A258914201D0FEF739
:1053E80053FCC8460426B144B2465847C84604266A
:1053F800B144B2465847296A8E46C90F0CD20322D7
:10540800120772B6E9699143022212071143E96152
:1054180062B62C20FEF736FC296A89081AD20C4994
:105428008E4217D14146A9604946E9605146297123
:105438002046FAF779FFA9688846E96889462979F4
:105448008A46002806D0C8460426B144B2465847C2
:105458007667644F2820FEF715FC01B50C214843F8
:10546800C0300019296B0A0901324272090B09037D
:105478004160E96A0A05920E891A03689E4601602E
:1054880002720B0B4B405B035B0E9C46C27A837A1D
:10549800FF2A03D00C215143CA3163545B0605D35C
:1054A8005B0E3C210901C918625404E05B0E0C2113
:1054B8004B43CB33E25463468033837208BC3C21B0
:1054C80009016144625C6354C272FF2A03D00C2153
:1054D8004A43CA32A3547046FEF7EFFA00BDA869E2
:1054E8008004800E0C214843C03020440168426883
:1054F800037A407A9B0119434008400102432A631A
:10550800EA6AE96251408909890601D0FEF7B6FACC
:10551800C8460420814482465847A8698004800E02
:10552800FFF79BFFC8460420814482465847184924
:105538008E428FD1C8460426B144B246584700F07F
:10554800EDF9FFF78AFFC846042081448246584790
:105558000F213C2272B6286A02408843920802430F
:105568002A620020510806D3100AE969090A08408E
:10557800000600D00420687106A109588B4662B65F
:105588000020A871C846042081448246584700007C
:10559800FFFF0041553F0008513F00083C20000133
:1055A8002044E96A40220C3803684B401B0B0AD19F
:1055B800437A5B0807D3013A1202AA61C84604205D
:1055C800814482465847013AEDD180200006A861FF
:1055D800C8460426B144B2465847F106890E8F449E
:1055E80000BF37E77BE798E734E733E732E7A6E71A
:1055F80030E7D3E72EE72DE72CE72BE72AE729E763
:1056080028E7A5E726E725E724E723E722E721E7B8
:1056180020E71FE71EE71DE71CE71BE71AE719E766
:1056280018E70321090772B6EA698A4300210907C6
:105638000A43EA6162B62C20FEF724FB296A89082E
:10564800EFD2B101890E8F4400BF1EE063E01CE079
:1056580061E03CE05FE05EE05DE068E75BE05AE067
:1056680059E058E057E056E055E0B6E753E052E01D
:1056780051E050E04FE04EE04DE04CE04BE04AE0B6
:1056880049E048E047E046E045E03104890E8F44B0
:1056980000BF42E04CE058E03DE061E03BE03AE02A
:1056A80039E068E037E071E035E07AE084E08EE0E8
:1056B80098E030E02FE02EE02DE02CE02BE02AE00F
:1056C80029E028E027E026E025E024E023E0310473
:1056D800890E8F4400BF91E01DE099E01BE01BE0BC
:1056E80019E018E017E09FE015E0A7E013E0E2E01A
:1056F800C1E0B6E00FE00EE00DE00CE00BE00AE0E0
:1057080009E008E007E006E005E004E003E002E065
:1057180001E000E0FFE79DE6F0E0A969F202D20EA1
:1057280001D09200A150C8460426B144B246584759
:1057380000F0F4F80102F202D20E01D09200A1505A
:10574800C8460426B144B2465847296BF202D20E25
:1057580001D09200A150C8460426B144B246584729
:10576800696BF202D20E01D09200A150C8460426FD
:10577800B144B2465847A96AF202D20E01D092004B
:10578800A150C8460426B144B2465847E96AF20215
:10579800D20E01D09200A150C8460426B144B246A8
:1057A8005847296AF202D20E01D09200A150C84689
:1057B8000426B144B2465847E969F202D20E01D034
:1057C8009200A150C8460426B144B2465847696AB7
:1057D800F202D20E01D09200A150C8460426B1446C
:1057E800B24658474FF40871F202D20E01D0920027
:1057F800A150C8460426B144B2465847F102C90E22
:1058080089006158A961C8460426B144B246584780
:10581800F102C90E89006158090A09022963C846BC
:105828000426B144B2465847F102C90E89006158AE
:10583800A962C8460426B144B2465847F102C90EC7
:105848008900615889098901EA6AE9625140890930
:10585800890601D0FEF712F9C8460426B144B246BB
:105868005847F102C90E890061586962C846042682
:10587800B144B2465847F102C90E89006158A34B9A
:1058880072B6EA699A4319401143E9612A6A00200D
:10589800510806D3100AE969090A0840000600D031
:1058A8000420687113A109588B4662B6C8460426BD
:1058B800B144B2465847F102C90E89006158944B69
:1058C80072B62A6A9A4319400A432A620021530889
:1058D80006D3110AEB691B0A1940090600D00421F6
:1058E800697104A04058834662B6C8460426B1448C
:1058F800B2465847553F0008513F0008F102C90E0B
:10590800890061586A6BD202D20A490D49051143D0
:105918006963C8460426B144B2465847A86B7D4916
:1059280048437D494018A863000E40F29341414323
:10593800090C38225143401A083070477C27F10C73
:105948003940615832B25218930702D01046FEF718
:105958009DF953000CD308D42B6A9B0802D2D300BC
:10596800DB0826E01046FEF791F92B6A9B08F9D26E
:105978003C231B012344100B50404003400E185C8D
:10598800FF2813D00C235843C03000190368534034
:105998001B0B09D1437A5B0806D3DB062FD5436876
:1059A8001005000D1B1804E0C07AE9E71046FEF761
:1059B80083F9180F0AD1E86B834211D20FB4184645
:1059C800291C0422FAF752FD0FBC0CE00FB418464C
:1059D800042100222B1CFCF76FFB00280FBC02D10E
:1059E8001800FEF7CDF92968B00B384000D02150D7
:1059F8000120A871C8460426B144B246584710464B
:105A0800FEF796F91046FEF7A5F91046FEF77EF95F
:105A1800FEF747F8C8460426B144B24658477C27E3
:105A28000020AB79A871002B66D0F10C3940615881
:105A380032B25218B10B39406158930702D0104660
:105A4800FEF72FF92B6A5B0CE2D253000CD308D473
:105A58002B6A9B0802D2D300DB0827E01046FEF72A
:105A680020F92B6A9B08F9D23C231B012344100B15
:105A780050404003400E185CFF2814D00C235843B4
:105A8800C0300019036853401B0B0AD1437A5B08E6
:105A980007D3DB06B6D5B8D343681005000D1B182D
:105AA80004E0C07AE8E71046FEF71BF9180F0BD19F
:105AB800E86B834213D229600FB41846291C0422CC
:105AC800FAF7DCFC0FBC0DE029600FB4184604217E
